{
  "_format": "hh-sol-artifact-1",
  "contractName": "SupplyManagement",
  "sourceName": "contracts/SupplyManagement.sol",
  "abi": [
    {
      "inputs": [],
      "stateMutability": "nonpayable",
      "type": "constructor"
    },
    {
      "anonymous": false,
      "inputs": [
        {
          "indexed": false,
          "internalType": "uint256",
          "name": "orderId",
          "type": "uint256"
        }
      ],
      "name": "OrderFulfilled",
      "type": "event"
    },
    {
      "anonymous": false,
      "inputs": [
        {
          "indexed": false,
          "internalType": "uint256",
          "name": "orderId",
          "type": "uint256"
        },
        {
          "indexed": false,
          "internalType": "uint256",
          "name": "productId",
          "type": "uint256"
        },
        {
          "indexed": false,
          "internalType": "uint256",
          "name": "quantity",
          "type": "uint256"
        },
        {
          "indexed": false,
          "internalType": "address",
          "name": "buyer",
          "type": "address"
        }
      ],
      "name": "OrderPlaced",
      "type": "event"
    },
    {
      "anonymous": false,
      "inputs": [
        {
          "indexed": false,
          "internalType": "uint256",
          "name": "id",
          "type": "uint256"
        },
        {
          "indexed": false,
          "internalType": "string",
          "name": "name",
          "type": "string"
        },
        {
          "indexed": false,
          "internalType": "uint256",
          "name": "price",
          "type": "uint256"
        },
        {
          "indexed": false,
          "internalType": "uint256",
          "name": "quantity",
          "type": "uint256"
        }
      ],
      "name": "ProductAdded",
      "type": "event"
    },
    {
      "anonymous": false,
      "inputs": [
        {
          "indexed": false,
          "internalType": "uint256",
          "name": "id",
          "type": "uint256"
        }
      ],
      "name": "ProductDeleted",
      "type": "event"
    },
    {
      "anonymous": false,
      "inputs": [
        {
          "indexed": false,
          "internalType": "uint256",
          "name": "id",
          "type": "uint256"
        },
        {
          "indexed": false,
          "internalType": "string",
          "name": "name",
          "type": "string"
        },
        {
          "indexed": false,
          "internalType": "uint256",
          "name": "price",
          "type": "uint256"
        },
        {
          "indexed": false,
          "internalType": "uint256",
          "name": "quantity",
          "type": "uint256"
        }
      ],
      "name": "ProductUpdated",
      "type": "event"
    },
    {
      "inputs": [
        {
          "internalType": "string",
          "name": "_name",
          "type": "string"
        },
        {
          "internalType": "uint256",
          "name": "_price",
          "type": "uint256"
        },
        {
          "internalType": "uint256",
          "name": "_quantity",
          "type": "uint256"
        }
      ],
      "name": "addProduct",
      "outputs": [],
      "stateMutability": "nonpayable",
      "type": "function"
    },
    {
      "inputs": [
        {
          "internalType": "uint256",
          "name": "_productId",
          "type": "uint256"
        }
      ],
      "name": "deleteProduct",
      "outputs": [],
      "stateMutability": "nonpayable",
      "type": "function"
    },
    {
      "inputs": [
        {
          "internalType": "uint256",
          "name": "_orderId",
          "type": "uint256"
        }
      ],
      "name": "fulfillOrder",
      "outputs": [],
      "stateMutability": "nonpayable",
      "type": "function"
    },
    {
      "inputs": [
        {
          "internalType": "uint256",
          "name": "_orderId",
          "type": "uint256"
        }
      ],
      "name": "getOrder",
      "outputs": [
        {
          "internalType": "uint256",
          "name": "",
          "type": "uint256"
        },
        {
          "internalType": "uint256",
          "name": "",
          "type": "uint256"
        },
        {
          "internalType": "address",
          "name": "",
          "type": "address"
        },
        {
          "internalType": "bool",
          "name": "",
          "type": "bool"
        }
      ],
      "stateMutability": "view",
      "type": "function"
    },
    {
      "inputs": [
        {
          "internalType": "uint256",
          "name": "_productId",
          "type": "uint256"
        }
      ],
      "name": "getProduct",
      "outputs": [
        {
          "internalType": "string",
          "name": "",
          "type": "string"
        },
        {
          "internalType": "uint256",
          "name": "",
          "type": "uint256"
        },
        {
          "internalType": "uint256",
          "name": "",
          "type": "uint256"
        }
      ],
      "stateMutability": "view",
      "type": "function"
    },
    {
      "inputs": [],
      "name": "orderCount",
      "outputs": [
        {
          "internalType": "uint256",
          "name": "",
          "type": "uint256"
        }
      ],
      "stateMutability": "view",
      "type": "function"
    },
    {
      "inputs": [
        {
          "internalType": "uint256",
          "name": "",
          "type": "uint256"
        }
      ],
      "name": "orders",
      "outputs": [
        {
          "internalType": "uint256",
          "name": "id",
          "type": "uint256"
        },
        {
          "internalType": "uint256",
          "name": "productId",
          "type": "uint256"
        },
        {
          "internalType": "uint256",
          "name": "quantity",
          "type": "uint256"
        },
        {
          "internalType": "address",
          "name": "buyer",
          "type": "address"
        },
        {
          "internalType": "bool",
          "name": "fulfilled",
          "type": "bool"
        }
      ],
      "stateMutability": "view",
      "type": "function"
    },
    {
      "inputs": [],
      "name": "owner",
      "outputs": [
        {
          "internalType": "address",
          "name": "",
          "type": "address"
        }
      ],
      "stateMutability": "view",
      "type": "function"
    },
    {
      "inputs": [
        {
          "internalType": "uint256",
          "name": "_productId",
          "type": "uint256"
        },
        {
          "internalType": "uint256",
          "name": "_quantity",
          "type": "uint256"
        }
      ],
      "name": "placeOrder",
      "outputs": [],
      "stateMutability": "nonpayable",
      "type": "function"
    },
    {
      "inputs": [],
      "name": "productCount",
      "outputs": [
        {
          "internalType": "uint256",
          "name": "",
          "type": "uint256"
        }
      ],
      "stateMutability": "view",
      "type": "function"
    },
    {
      "inputs": [
        {
          "internalType": "uint256",
          "name": "",
          "type": "uint256"
        }
      ],
      "name": "products",
      "outputs": [
        {
          "internalType": "uint256",
          "name": "id",
          "type": "uint256"
        },
        {
          "internalType": "string",
          "name": "name",
          "type": "string"
        },
        {
          "internalType": "uint256",
          "name": "price",
          "type": "uint256"
        },
        {
          "internalType": "uint256",
          "name": "quantity",
          "type": "uint256"
        },
        {
          "internalType": "bool",
          "name": "exists",
          "type": "bool"
        }
      ],
      "stateMutability": "view",
      "type": "function"
    },
    {
      "inputs": [
        {
          "internalType": "address",
          "name": "_newOwner",
          "type": "address"
        }
      ],
      "name": "transferOwnership",
      "outputs": [],
      "stateMutability": "nonpayable",
      "type": "function"
    },
    {
      "inputs": [
        {
          "internalType": "uint256",
          "name": "_productId",
          "type": "uint256"
        },
        {
          "internalType": "string",
          "name": "_name",
          "type": "string"
        },
        {
          "internalType": "uint256",
          "name": "_price",
          "type": "uint256"
        },
        {
          "internalType": "uint256",
          "name": "_quantity",
          "type": "uint256"
        }
      ],
      "name": "updateProduct",
      "outputs": [],
      "stateMutability": "nonpayable",
      "type": "function"
    }
  ],
  "bytecode": "0x608060405234801561001057600080fd5b50336000806101000a81548173ffffffffffffffffffffffffffffffffffffffff021916908373ffffffffffffffffffffffffffffffffffffffff1602179055506119c8806100606000396000f3fe608060405234801561001057600080fd5b50600436106100cf5760003560e01c80638da5cb5b1161008c578063d09ef24111610066578063d09ef2411461021a578063e0f6ef871461024d578063ed90c7b71461026b578063f2fde38b14610287576100cf565b80638da5cb5b14610196578063a85c38ef146101b4578063b9db15b4146101e8576100cf565b8063125b0b34146100d45780632453ffa8146100f05780632d5617871461010e5780636311e8301461012a5780637acc0b2014610146578063843f61e21461017a575b600080fd5b6100ee60048036038101906100e99190611106565b6102a3565b005b6100f861042c565b6040516101059190611572565b60405180910390f35b61012860048036038101906101239190611196565b610432565b005b610144600480360381019061013f919061116d565b6105a9565b005b610160600480360381019061015b919061116d565b610749565b6040516101719594939291906115d9565b60405180910390f35b610194600480360381019061018f9190611211565b610814565b005b61019e610a37565b6040516101ab9190611459565b60405180910390f35b6101ce60048036038101906101c9919061116d565b610a5b565b6040516101df9594939291906116bd565b60405180910390f35b61020260048036038101906101fd919061116d565b610abe565b60405161021193929190611474565b60405180910390f35b610234600480360381019061022f919061116d565b610be5565b6040516102449493929190611633565b60405180910390f35b610255610ca4565b6040516102629190611572565b60405180910390f35b6102856004803603810190610280919061116d565b610caa565b005b6102a1600480360381019061029c91906110dd565b610e27565b005b60008054906101000a900473ffffffffffffffffffffffffffffffffffffffff1673ffffffffffffffffffffffffffffffffffffffff163373ffffffffffffffffffffffffffffffffffffffff1614610331576040517f08c379a000000000000000000000000000000000000000000000000000000000815260040161032890611552565b60405180910390fd5b600160008154809291906103449061187d565b91905055506040518060a001604052806001548152602001848152602001838152602001828152602001600115158152506003600060015481526020019081526020016000206000820151816000015560208201518160010190805190602001906103b0929190610f68565b50604082015181600201556060820151816003015560808201518160040160006101000a81548160ff0219169083151502179055509050507f0107e99fb43ba873db8a5ce7c34a12cd44cd3041167cff32040ddb6aca455ae660015484848460405161041f949392919061158d565b60405180910390a1505050565b60025481565b60008054906101000a900473ffffffffffffffffffffffffffffffffffffffff1673ffffffffffffffffffffffffffffffffffffffff163373ffffffffffffffffffffffffffffffffffffffff16146104c0576040517f08c379a00000000000000000000000000000000000000000000000000000000081526004016104b790611552565b60405180910390fd5b6003600085815260200190815260200160002060040160009054906101000a900460ff16610523576040517f08c379a000000000000000000000000000000000000000000000000000000000815260040161051a906114b2565b60405180910390fd5b600060036000868152602001908152602001600020905083816001019080519060200190610552929190610f68565b508281600201819055508181600301819055507ff2f6cb462e8728158dbba5fcbe8181d88ca70bd5a0a5ad7f718c99ad80ba00a58585858560405161059a949392919061158d565b60405180910390a15050505050565b60008054906101000a900473ffffffffffffffffffffffffffffffffffffffff1673ffffffffffffffffffffffffffffffffffffffff163373ffffffffffffffffffffffffffffffffffffffff1614610637576040517f08c379a000000000000000000000000000000000000000000000000000000000815260040161062e90611552565b60405180910390fd5b60008111801561064957506002548111155b610688576040517f08c379a000000000000000000000000000000000000000000000000000000000815260040161067f90611532565b60405180910390fd5b60006004600083815260200190815260200160002090508060030160149054906101000a900460ff16156106f1576040517f08c379a00000000000000000000000000000000000000000000000000000000081526004016106e8906114f2565b60405180910390fd5b60018160030160146101000a81548160ff0219169083151502179055507fd276fbc5e545783825cac5416bad154c47e39daebf44589255a65b4f56cf3e0e8260405161073d9190611572565b60405180910390a15050565b60036020528060005260406000206000915090508060000154908060010180546107729061184b565b80601f016020809104026020016040519081016040528092919081815260200182805461079e9061184b565b80156107eb5780601f106107c0576101008083540402835291602001916107eb565b820191906000526020600020905b8154815290600101906020018083116107ce57829003601f168201915b5050505050908060020154908060030154908060040160009054906101000a900460ff16905085565b6003600083815260200190815260200160002060040160009054906101000a900460ff16610877576040517f08c379a000000000000000000000000000000000000000000000000000000000815260040161086e906114b2565b60405180910390fd5b80600360008481526020019081526020016000206003015410156108d0576040517f08c379a00000000000000000000000000000000000000000000000000000000081526004016108c790611512565b60405180910390fd5b600260008154809291906108e39061187d565b91905055506040518060a0016040528060025481526020018381526020018281526020013373ffffffffffffffffffffffffffffffffffffffff1681526020016000151581525060046000600254815260200190815260200160002060008201518160000155602082015181600101556040820151816002015560608201518160030160006101000a81548173ffffffffffffffffffffffffffffffffffffffff021916908373ffffffffffffffffffffffffffffffffffffffff16021790555060808201518160030160146101000a81548160ff021916908315150217905550905050806003600084815260200190815260200160002060030160008282546109ed919061178d565b925050819055507f38006337c8ef9eb43639313dc923007658991bf77df22b9abe415cec1eaa395b600254838333604051610a2b9493929190611678565b60405180910390a15050565b60008054906101000a900473ffffffffffffffffffffffffffffffffffffffff1681565b60046020528060005260406000206000915090508060000154908060010154908060020154908060030160009054906101000a900473ffffffffffffffffffffffffffffffffffffffff16908060030160149054906101000a900460ff16905085565b60606000806003600085815260200190815260200160002060040160009054906101000a900460ff16610b26576040517f08c379a0000000000000000000000000000000000000000000000000000000008152600401610b1d906114b2565b60405180910390fd5b60006003600086815260200190815260200160002090508060010181600201548260030154828054610b579061184b565b80601f0160208091040260200160405190810160405280929190818152602001828054610b839061184b565b8015610bd05780601f10610ba557610100808354040283529160200191610bd0565b820191906000526020600020905b815481529060010190602001808311610bb357829003601f168201915b50505050509250935093509350509193909250565b600080600080600085118015610bfd57506002548511155b610c3c576040517f08c379a0000000000000000000000000000000000000000000000000000000008152600401610c3390611532565b60405180910390fd5b6000600460008781526020019081526020016000209050806001015481600201548260030160009054906101000a900473ffffffffffffffffffffffffffffffffffffffff168360030160149054906101000a900460ff169450945094509450509193509193565b60015481565b60008054906101000a900473ffffffffffffffffffffffffffffffffffffffff1673ffffffffffffffffffffffffffffffffffffffff163373ffffffffffffffffffffffffffffffffffffffff1614610d38576040517f08c379a0000000000000000000000000000000000000000000000000000000008152600401610d2f90611552565b60405180910390fd5b6003600082815260200190815260200160002060040160009054906101000a900460ff16610d9b576040517f08c379a0000000000000000000000000000000000000000000000000000000008152600401610d92906114b2565b60405180910390fd5b60036000828152602001908152602001600020600080820160009055600182016000610dc79190610fee565b600282016000905560038201600090556004820160006101000a81549060ff021916905550507fc341cf326465fe622f86c468249e8c0cb03ed23ba376a6a34863a1374ac7d76981604051610e1c9190611572565b60405180910390a150565b60008054906101000a900473ffffffffffffffffffffffffffffffffffffffff1673ffffffffffffffffffffffffffffffffffffffff163373ffffffffffffffffffffffffffffffffffffffff1614610eb5576040517f08c379a0000000000000000000000000000000000000000000000000000000008152600401610eac90611552565b60405180910390fd5b600073ffffffffffffffffffffffffffffffffffffffff168173ffffffffffffffffffffffffffffffffffffffff161415610f25576040517f08c379a0000000000000000000000000000000000000000000000000000000008152600401610f1c906114d2565b60405180910390fd5b806000806101000a81548173ffffffffffffffffffffffffffffffffffffffff021916908373ffffffffffffffffffffffffffffffffffffffff16021790555050565b828054610f749061184b565b90600052602060002090601f016020900481019282610f965760008555610fdd565b82601f10610faf57805160ff1916838001178555610fdd565b82800160010185558215610fdd579182015b82811115610fdc578251825591602001919060010190610fc1565b5b509050610fea919061102e565b5090565b508054610ffa9061184b565b6000825580601f1061100c575061102b565b601f01602090049060005260206000209081019061102a919061102e565b5b50565b5b8082111561104757600081600090555060010161102f565b5090565b600061105e61105984611741565b611710565b90508281526020810184848401111561107657600080fd5b611081848285611809565b509392505050565b60008135905061109881611964565b92915050565b600082601f8301126110af57600080fd5b81356110bf84826020860161104b565b91505092915050565b6000813590506110d78161197b565b92915050565b6000602082840312156110ef57600080fd5b60006110fd84828501611089565b91505092915050565b60008060006060848603121561111b57600080fd5b600084013567ffffffffffffffff81111561113557600080fd5b6111418682870161109e565b9350506020611152868287016110c8565b9250506040611163868287016110c8565b9150509250925092565b60006020828403121561117f57600080fd5b600061118d848285016110c8565b91505092915050565b600080600080608085870312156111ac57600080fd5b60006111ba878288016110c8565b945050602085013567ffffffffffffffff8111156111d757600080fd5b6111e38782880161109e565b93505060406111f4878288016110c8565b9250506060611205878288016110c8565b91505092959194509250565b6000806040838503121561122457600080fd5b6000611232858286016110c8565b9250506020611243858286016110c8565b9150509250929050565b611256816117c1565b82525050565b611265816117d3565b82525050565b600061127682611771565b611280818561177c565b9350611290818560208601611818565b61129981611953565b840191505092915050565b60006112b160168361177c565b91507f50726f6475637420646f6573206e6f74206578697374000000000000000000006000830152602082019050919050565b60006112f1600f8361177c565b91507f496e76616c6964206164647265737300000000000000000000000000000000006000830152602082019050919050565b600061133160178361177c565b91507f4f7264657220616c72656164792066756c66696c6c65640000000000000000006000830152602082019050919050565b6000611371601d8361177c565b91507f496e73756666696369656e742070726f64756374207175616e746974790000006000830152602082019050919050565b60006113b160108361177c565b91507f496e76616c6964206f72646572204944000000000000000000000000000000006000830152602082019050919050565b60006113f160228361177c565b91507f4f6e6c79206f776e65722063616e20706572666f726d2074686973206163746960008301527f6f6e0000000000000000000000000000000000000000000000000000000000006020830152604082019050919050565b611453816117ff565b82525050565b600060208201905061146e600083018461124d565b92915050565b6000606082019050818103600083015261148e818661126b565b905061149d602083018561144a565b6114aa604083018461144a565b949350505050565b600060208201905081810360008301526114cb816112a4565b9050919050565b600060208201905081810360008301526114eb816112e4565b9050919050565b6000602082019050818103600083015261150b81611324565b9050919050565b6000602082019050818103600083015261152b81611364565b9050919050565b6000602082019050818103600083015261154b816113a4565b9050919050565b6000602082019050818103600083015261156b816113e4565b9050919050565b6000602082019050611587600083018461144a565b92915050565b60006080820190506115a2600083018761144a565b81810360208301526115b4818661126b565b90506115c3604083018561144a565b6115d0606083018461144a565b95945050505050565b600060a0820190506115ee600083018861144a565b8181036020830152611600818761126b565b905061160f604083018661144a565b61161c606083018561144a565b611629608083018461125c565b9695505050505050565b6000608082019050611648600083018761144a565b611655602083018661144a565b611662604083018561124d565b61166f606083018461125c565b95945050505050565b600060808201905061168d600083018761144a565b61169a602083018661144a565b6116a7604083018561144a565b6116b4606083018461124d565b95945050505050565b600060a0820190506116d2600083018861144a565b6116df602083018761144a565b6116ec604083018661144a565b6116f9606083018561124d565b611706608083018461125c565b9695505050505050565b6000604051905081810181811067ffffffffffffffff8211171561173757611736611924565b5b8060405250919050565b600067ffffffffffffffff82111561175c5761175b611924565b5b601f19601f8301169050602081019050919050565b600081519050919050565b600082825260208201905092915050565b6000611798826117ff565b91506117a3836117ff565b9250828210156117b6576117b56118c6565b5b828203905092915050565b60006117cc826117df565b9050919050565b60008115159050919050565b600073ffffffffffffffffffffffffffffffffffffffff82169050919050565b6000819050919050565b82818337600083830152505050565b60005b8381101561183657808201518184015260208101905061181b565b83811115611845576000848401525b50505050565b6000600282049050600182168061186357607f821691505b60208210811415611877576118766118f5565b5b50919050565b6000611888826117ff565b91507fffffffffffffffffffffffffffffffffffffffffffffffffffffffffffffffff8214156118bb576118ba6118c6565b5b600182019050919050565b7f4e487b7100000000000000000000000000000000000000000000000000000000600052601160045260246000fd5b7f4e487b7100000000000000000000000000000000000000000000000000000000600052602260045260246000fd5b7f4e487b7100000000000000000000000000000000000000000000000000000000600052604160045260246000fd5b6000601f19601f8301169050919050565b61196d816117c1565b811461197857600080fd5b50565b611984816117ff565b811461198f57600080fd5b5056fea26469706673582212204eb48115bdfc709899a6cebe8857e7f9e49a3c2e3d8386635db3b1791cdf436164736f6c63430008000033",
  "linkReferences": {},
  "deployedLinkReferences": {}
}