{
  "_format": "hh-sol-artifact-1",
  "contractName": "SupplyManagement",
  "sourceName": "contracts/SupplyManagement.sol",
  "abi": [
    {
      "inputs": [],
      "stateMutability": "nonpayable",
      "type": "constructor"
    },
    {
      "anonymous": false,
      "inputs": [
        {
          "indexed": false,
          "internalType": "uint256",
          "name": "orderId",
          "type": "uint256"
        }
      ],
      "name": "OrderDeleted",
      "type": "event"
    },
    {
      "anonymous": false,
      "inputs": [
        {
          "indexed": false,
          "internalType": "uint256",
          "name": "orderId",
          "type": "uint256"
        },
        {
          "indexed": false,
          "internalType": "string",
          "name": "status",
          "type": "string"
        }
      ],
      "name": "OrderFulfilled",
      "type": "event"
    },
    {
      "anonymous": false,
      "inputs": [
        {
          "indexed": false,
          "internalType": "uint256",
          "name": "orderId",
          "type": "uint256"
        },
        {
          "indexed": false,
          "internalType": "string",
          "name": "productName",
          "type": "string"
        },
        {
          "indexed": false,
          "internalType": "uint256",
          "name": "quantity",
          "type": "uint256"
        },
        {
          "indexed": false,
          "internalType": "address",
          "name": "buyer",
          "type": "address"
        },
        {
          "indexed": false,
          "internalType": "string",
          "name": "status",
          "type": "string"
        }
      ],
      "name": "OrderPlaced",
      "type": "event"
    },
    {
      "anonymous": false,
      "inputs": [
        {
          "indexed": false,
          "internalType": "uint256",
          "name": "id",
          "type": "uint256"
        },
        {
          "indexed": false,
          "internalType": "string",
          "name": "name",
          "type": "string"
        },
        {
          "indexed": false,
          "internalType": "string",
          "name": "description",
          "type": "string"
        },
        {
          "indexed": false,
          "internalType": "uint256",
          "name": "price",
          "type": "uint256"
        },
        {
          "indexed": false,
          "internalType": "uint256",
          "name": "quantity",
          "type": "uint256"
        },
        {
          "indexed": false,
          "internalType": "string",
          "name": "category",
          "type": "string"
        },
        {
          "indexed": false,
          "internalType": "uint256",
          "name": "createdAt",
          "type": "uint256"
        }
      ],
      "name": "ProductAdded",
      "type": "event"
    },
    {
      "anonymous": false,
      "inputs": [
        {
          "indexed": false,
          "internalType": "uint256",
          "name": "id",
          "type": "uint256"
        }
      ],
      "name": "ProductDeleted",
      "type": "event"
    },
    {
      "anonymous": false,
      "inputs": [
        {
          "indexed": false,
          "internalType": "uint256",
          "name": "id",
          "type": "uint256"
        },
        {
          "indexed": false,
          "internalType": "string",
          "name": "name",
          "type": "string"
        },
        {
          "indexed": false,
          "internalType": "string",
          "name": "description",
          "type": "string"
        },
        {
          "indexed": false,
          "internalType": "uint256",
          "name": "price",
          "type": "uint256"
        },
        {
          "indexed": false,
          "internalType": "uint256",
          "name": "quantity",
          "type": "uint256"
        },
        {
          "indexed": false,
          "internalType": "string",
          "name": "category",
          "type": "string"
        }
      ],
      "name": "ProductUpdated",
      "type": "event"
    },
    {
      "anonymous": false,
      "inputs": [
        {
          "indexed": false,
          "internalType": "address",
          "name": "userAddress",
          "type": "address"
        },
        {
          "indexed": false,
          "internalType": "string",
          "name": "role",
          "type": "string"
        }
      ],
      "name": "UserRegistered",
      "type": "event"
    },
    {
      "inputs": [
        {
          "internalType": "string",
          "name": "_name",
          "type": "string"
        },
        {
          "internalType": "string",
          "name": "_description",
          "type": "string"
        },
        {
          "internalType": "uint256",
          "name": "_price",
          "type": "uint256"
        },
        {
          "internalType": "uint256",
          "name": "_quantity",
          "type": "uint256"
        },
        {
          "internalType": "string",
          "name": "_category",
          "type": "string"
        }
      ],
      "name": "addProduct",
      "outputs": [],
      "stateMutability": "nonpayable",
      "type": "function"
    },
    {
      "inputs": [
        {
          "internalType": "uint256",
          "name": "_orderId",
          "type": "uint256"
        }
      ],
      "name": "deleteOrder",
      "outputs": [],
      "stateMutability": "nonpayable",
      "type": "function"
    },
    {
      "inputs": [
        {
          "internalType": "uint256",
          "name": "_productId",
          "type": "uint256"
        }
      ],
      "name": "deleteProduct",
      "outputs": [],
      "stateMutability": "nonpayable",
      "type": "function"
    },
    {
      "inputs": [
        {
          "internalType": "uint256",
          "name": "_orderId",
          "type": "uint256"
        },
        {
          "internalType": "string",
          "name": "_status",
          "type": "string"
        }
      ],
      "name": "fulfillOrder",
      "outputs": [],
      "stateMutability": "nonpayable",
      "type": "function"
    },
    {
      "inputs": [
        {
          "internalType": "uint256",
          "name": "_orderId",
          "type": "uint256"
        }
      ],
      "name": "getOrder",
      "outputs": [
        {
          "internalType": "string",
          "name": "",
          "type": "string"
        },
        {
          "internalType": "uint256",
          "name": "",
          "type": "uint256"
        },
        {
          "internalType": "address",
          "name": "",
          "type": "address"
        },
        {
          "internalType": "bool",
          "name": "",
          "type": "bool"
        },
        {
          "internalType": "string",
          "name": "",
          "type": "string"
        }
      ],
      "stateMutability": "view",
      "type": "function"
    },
    {
      "inputs": [
        {
          "internalType": "uint256",
          "name": "_productId",
          "type": "uint256"
        }
      ],
      "name": "getProduct",
      "outputs": [
        {
          "internalType": "string",
          "name": "",
          "type": "string"
        },
        {
          "internalType": "string",
          "name": "",
          "type": "string"
        },
        {
          "internalType": "uint256",
          "name": "",
          "type": "uint256"
        },
        {
          "internalType": "uint256",
          "name": "",
          "type": "uint256"
        },
        {
          "internalType": "string",
          "name": "",
          "type": "string"
        },
        {
          "internalType": "uint256",
          "name": "",
          "type": "uint256"
        }
      ],
      "stateMutability": "view",
      "type": "function"
    },
    {
      "inputs": [
        {
          "internalType": "string",
          "name": "_name",
          "type": "string"
        }
      ],
      "name": "getProductIdByName",
      "outputs": [
        {
          "internalType": "uint256",
          "name": "",
          "type": "uint256"
        }
      ],
      "stateMutability": "view",
      "type": "function"
    },
    {
      "inputs": [],
      "name": "orderCount",
      "outputs": [
        {
          "internalType": "uint256",
          "name": "",
          "type": "uint256"
        }
      ],
      "stateMutability": "view",
      "type": "function"
    },
    {
      "inputs": [
        {
          "internalType": "uint256",
          "name": "",
          "type": "uint256"
        }
      ],
      "name": "orders",
      "outputs": [
        {
          "internalType": "uint256",
          "name": "id",
          "type": "uint256"
        },
        {
          "internalType": "string",
          "name": "productName",
          "type": "string"
        },
        {
          "internalType": "uint256",
          "name": "quantity",
          "type": "uint256"
        },
        {
          "internalType": "address",
          "name": "buyer",
          "type": "address"
        },
        {
          "internalType": "bool",
          "name": "fulfilled",
          "type": "bool"
        },
        {
          "internalType": "string",
          "name": "status",
          "type": "string"
        }
      ],
      "stateMutability": "view",
      "type": "function"
    },
    {
      "inputs": [],
      "name": "owner",
      "outputs": [
        {
          "internalType": "address",
          "name": "",
          "type": "address"
        }
      ],
      "stateMutability": "view",
      "type": "function"
    },
    {
      "inputs": [
        {
          "internalType": "string",
          "name": "_productName",
          "type": "string"
        },
        {
          "internalType": "uint256",
          "name": "_quantity",
          "type": "uint256"
        }
      ],
      "name": "placeOrder",
      "outputs": [],
      "stateMutability": "nonpayable",
      "type": "function"
    },
    {
      "inputs": [],
      "name": "productCount",
      "outputs": [
        {
          "internalType": "uint256",
          "name": "",
          "type": "uint256"
        }
      ],
      "stateMutability": "view",
      "type": "function"
    },
    {
      "inputs": [
        {
          "internalType": "uint256",
          "name": "",
          "type": "uint256"
        }
      ],
      "name": "products",
      "outputs": [
        {
          "internalType": "uint256",
          "name": "id",
          "type": "uint256"
        },
        {
          "internalType": "string",
          "name": "name",
          "type": "string"
        },
        {
          "internalType": "string",
          "name": "description",
          "type": "string"
        },
        {
          "internalType": "uint256",
          "name": "price",
          "type": "uint256"
        },
        {
          "internalType": "uint256",
          "name": "quantity",
          "type": "uint256"
        },
        {
          "internalType": "string",
          "name": "category",
          "type": "string"
        },
        {
          "internalType": "uint256",
          "name": "createdAt",
          "type": "uint256"
        },
        {
          "internalType": "bool",
          "name": "exists",
          "type": "bool"
        }
      ],
      "stateMutability": "view",
      "type": "function"
    },
    {
      "inputs": [
        {
          "internalType": "address",
          "name": "_userAddress",
          "type": "address"
        },
        {
          "internalType": "string",
          "name": "_role",
          "type": "string"
        }
      ],
      "name": "registerUser",
      "outputs": [],
      "stateMutability": "nonpayable",
      "type": "function"
    },
    {
      "inputs": [
        {
          "internalType": "address",
          "name": "_newOwner",
          "type": "address"
        }
      ],
      "name": "transferOwnership",
      "outputs": [],
      "stateMutability": "nonpayable",
      "type": "function"
    },
    {
      "inputs": [
        {
          "internalType": "uint256",
          "name": "_productId",
          "type": "uint256"
        },
        {
          "internalType": "string",
          "name": "_name",
          "type": "string"
        },
        {
          "internalType": "string",
          "name": "_description",
          "type": "string"
        },
        {
          "internalType": "uint256",
          "name": "_price",
          "type": "uint256"
        },
        {
          "internalType": "uint256",
          "name": "_quantity",
          "type": "uint256"
        },
        {
          "internalType": "string",
          "name": "_category",
          "type": "string"
        }
      ],
      "name": "updateProduct",
      "outputs": [],
      "stateMutability": "nonpayable",
      "type": "function"
    },
    {
      "inputs": [
        {
          "internalType": "address",
          "name": "",
          "type": "address"
        }
      ],
      "name": "users",
      "outputs": [
        {
          "internalType": "address",
          "name": "userAddress",
          "type": "address"
        },
        {
          "internalType": "string",
          "name": "role",
          "type": "string"
        }
      ],
      "stateMutability": "view",
      "type": "function"
    }
  ],
  "bytecode": "0x608060405234801561001057600080fd5b50336000806101000a81548173ffffffffffffffffffffffffffffffffffffffff021916908373ffffffffffffffffffffffffffffffffffffffff160217905550612b21806100606000396000f3fe608060405234801561001057600080fd5b506004361061010b5760003560e01c8063a1b6e836116100a2578063d09ef24111610071578063d09ef241146102c6578063e0f6ef87146102fa578063e1b6579814610318578063ed90c7b714610348578063f2fde38b146103645761010b565b8063a1b6e8361461020f578063a85c38ef1461022b578063a87430ba14610260578063b9db15b4146102915761010b565b8063520a74bb116100de578063520a74bb146101825780636daf0fbb1461019e5780637acc0b20146101ba5780638da5cb5b146101f15761010b565b80630ea126f91461011057806311a003271461012c5780632453ffa8146101485780634da47d3714610166575b600080fd5b61012a60048036038101906101259190611c8c565b610380565b005b61014660048036038101906101419190611e34565b61051c565b005b6101506106b6565b60405161015d91906125a3565b60405180910390f35b610180600480360381019061017b9190611eb1565b6106bc565b005b61019c60048036038101906101979190611e5d565b61086b565b005b6101b860048036038101906101b39190611d21565b610a27565b005b6101d460048036038101906101cf9190611e34565b610c54565b6040516101e89897969594939291906126e8565b60405180910390f35b6101f9610e41565b6040516102069190612381565b60405180910390f35b61022960048036038101906102249190611de0565b610e65565b005b61024560048036038101906102409190611e34565b6110e2565b6040516102579695949392919061277b565b60405180910390f35b61027a60048036038101906102759190611c63565b61125b565b60405161028892919061239c565b60405180910390f35b6102ab60048036038101906102a69190611e34565b611327565b6040516102bd969594939291906123cc565b60405180910390f35b6102e060048036038101906102db9190611e34565b611580565b6040516102f1959493929190612442565b60405180910390f35b610302611761565b60405161030f91906125a3565b60405180910390f35b610332600480360381019061032d9190611ce0565b611767565b60405161033f91906125a3565b60405180910390f35b610362600480360381019061035d9190611e34565b611808565b005b61037e60048036038101906103799190611c63565b6119ad565b005b60008054906101000a900473ffffffffffffffffffffffffffffffffffffffff1673ffffffffffffffffffffffffffffffffffffffff163373ffffffffffffffffffffffffffffffffffffffff161461040e576040517f08c379a000000000000000000000000000000000000000000000000000000000815260040161040590612543565b60405180910390fd5b60405180604001604052808373ffffffffffffffffffffffffffffffffffffffff16815260200182815250600560008473ffffffffffffffffffffffffffffffffffffffff1673ffffffffffffffffffffffffffffffffffffffff16815260200190815260200160002060008201518160000160006101000a81548173ffffffffffffffffffffffffffffffffffffffff021916908373ffffffffffffffffffffffffffffffffffffffff16021790555060208201518160010190805190602001906104db929190611aee565b509050507f48cac28ad4dc618e15f4c2dd5e97751182f166de97b25618318b2112aa951a2f828260405161051092919061239c565b60405180910390a15050565b60008054906101000a900473ffffffffffffffffffffffffffffffffffffffff1673ffffffffffffffffffffffffffffffffffffffff163373ffffffffffffffffffffffffffffffffffffffff16146105aa576040517f08c379a00000000000000000000000000000000000000000000000000000000081526004016105a190612583565b60405180910390fd5b6000811180156105bc57506002548111155b6105fb576040517f08c379a00000000000000000000000000000000000000000000000000000000081526004016105f290612563565b60405180910390fd5b600460008281526020019081526020016000206000808201600090556001820160006106279190611b74565b60028201600090556003820160006101000a81549073ffffffffffffffffffffffffffffffffffffffff02191690556003820160146101000a81549060ff021916905560048201600061067a9190611b74565b50507f91635156bba825be2f9a200b140420e4bee0d251f7d43bf956e63f74960030e0816040516106ab91906125a3565b60405180910390a150565b60025481565b60008054906101000a900473ffffffffffffffffffffffffffffffffffffffff1673ffffffffffffffffffffffffffffffffffffffff163373ffffffffffffffffffffffffffffffffffffffff161461074a576040517f08c379a000000000000000000000000000000000000000000000000000000000815260040161074190612583565b60405180910390fd5b6003600087815260200190815260200160002060070160009054906101000a900460ff166107ad576040517f08c379a00000000000000000000000000000000000000000000000000000000081526004016107a4906124a3565b60405180910390fd5b6000600360008881526020019081526020016000209050858160010190805190602001906107dc929190611aee565b50848160020190805190602001906107f5929190611aee565b5083816003018190555082816004018190555081816005019080519060200190610820929190611aee565b507f1a5ad55a3af679b754795041d526abc4762353fa712b4dcd5af397232e89ea2f87878787878760405161085a969594939291906125ee565b60405180910390a150505050505050565b60008054906101000a900473ffffffffffffffffffffffffffffffffffffffff1673ffffffffffffffffffffffffffffffffffffffff163373ffffffffffffffffffffffffffffffffffffffff16146108f9576040517f08c379a00000000000000000000000000000000000000000000000000000000081526004016108f090612583565b60405180910390fd5b60008211801561090b57506002548211155b61094a576040517f08c379a000000000000000000000000000000000000000000000000000000000815260040161094190612563565b60405180910390fd5b60006004600084815260200190815260200160002090508060030160149054906101000a900460ff16156109b3576040517f08c379a00000000000000000000000000000000000000000000000000000000081526004016109aa906124e3565b60405180910390fd5b60018160030160146101000a81548160ff021916908315150217905550818160040190805190602001906109e8929190611aee565b507f93161d8f4015340d1c4c0ef40f679db2250069c0ec3ee411d3801aa0a2bb60148383604051610a1a9291906125be565b60405180910390a1505050565b604051602001610a369061236c565b60405160208183030381529060405280519060200120600560003373ffffffffffffffffffffffffffffffffffffffff1673ffffffffffffffffffffffffffffffffffffffff168152602001908152602001600020600101604051602001610a9e9190612355565b6040516020818303038152906040528051906020012014610af4576040517f08c379a0000000000000000000000000000000000000000000000000000000008152600401610aeb90612503565b60405180910390fd5b60016000815480929190610b07906129d6565b91905055506000429050604051806101000160405280600154815260200187815260200186815260200185815260200184815260200183815260200182815260200160011515815250600360006001548152602001908152602001600020600082015181600001556020820151816001019080519060200190610b8b929190611aee565b506040820151816002019080519060200190610ba8929190611aee565b50606082015181600301556080820151816004015560a0820151816005019080519060200190610bd9929190611aee565b5060c0820151816006015560e08201518160070160006101000a81548160ff0219169083151502179055509050507f35daa2855ab12d91eeb89a0d185130432cb67332e679f336e2b73b792dfee572600154878787878787604051610c449796959493929190612664565b60405180910390a1505050505050565b6003602052806000526040600020600091509050806000015490806001018054610c7d906129a4565b80601f0160208091040260200160405190810160405280929190818152602001828054610ca9906129a4565b8015610cf65780601f10610ccb57610100808354040283529160200191610cf6565b820191906000526020600020905b815481529060010190602001808311610cd957829003601f168201915b505050505090806002018054610d0b906129a4565b80601f0160208091040260200160405190810160405280929190818152602001828054610d37906129a4565b8015610d845780601f10610d5957610100808354040283529160200191610d84565b820191906000526020600020905b815481529060010190602001808311610d6757829003601f168201915b505050505090806003015490806004015490806005018054610da5906129a4565b80601f0160208091040260200160405190810160405280929190818152602001828054610dd1906129a4565b8015610e1e5780601f10610df357610100808354040283529160200191610e1e565b820191906000526020600020905b815481529060010190602001808311610e0157829003601f168201915b5050505050908060060154908060070160009054906101000a900460ff16905088565b60008054906101000a900473ffffffffffffffffffffffffffffffffffffffff1681565b6000610e7083611767565b90506000811415610eb6576040517f08c379a0000000000000000000000000000000000000000000000000000000008152600401610ead906124a3565b60405180910390fd5b8160036000838152602001908152602001600020600401541015610f0f576040517f08c379a0000000000000000000000000000000000000000000000000000000008152600401610f0690612523565b60405180910390fd5b60026000815480929190610f22906129d6565b91905055506040518060c0016040528060025481526020018481526020018381526020013373ffffffffffffffffffffffffffffffffffffffff1681526020016000151581526020016040518060400160405280600781526020017f70656e64696e6700000000000000000000000000000000000000000000000000815250815250600460006002548152602001908152602001600020600082015181600001556020820151816001019080519060200190610fdf929190611aee565b506040820151816002015560608201518160030160006101000a81548173ffffffffffffffffffffffffffffffffffffffff021916908373ffffffffffffffffffffffffffffffffffffffff16021790555060808201518160030160146101000a81548160ff02191690831515021790555060a082015181600401908051906020019061106d929190611aee565b509050508160036000838152602001908152602001600020600401600082825461109791906128e6565b925050819055507f6491695afacb7a186fd436ad32316506f6f009aa22b0c9ffce8eee149f9b39526002548484336040516110d594939291906127ea565b60405180910390a1505050565b600460205280600052604060002060009150905080600001549080600101805461110b906129a4565b80601f0160208091040260200160405190810160405280929190818152602001828054611137906129a4565b80156111845780601f1061115957610100808354040283529160200191611184565b820191906000526020600020905b81548152906001019060200180831161116757829003601f168201915b5050505050908060020154908060030160009054906101000a900473ffffffffffffffffffffffffffffffffffffffff16908060030160149054906101000a900460ff16908060040180546111d8906129a4565b80601f0160208091040260200160405190810160405280929190818152602001828054611204906129a4565b80156112515780601f1061122657610100808354040283529160200191611251565b820191906000526020600020905b81548152906001019060200180831161123457829003601f168201915b5050505050905086565b60056020528060005260406000206000915090508060000160009054906101000a900473ffffffffffffffffffffffffffffffffffffffff16908060010180546112a4906129a4565b80601f01602080910402602001604051908101604052809291908181526020018280546112d0906129a4565b801561131d5780601f106112f25761010080835404028352916020019161131d565b820191906000526020600020905b81548152906001019060200180831161130057829003601f168201915b5050505050905082565b606080600080606060006003600088815260200190815260200160002060070160009054906101000a900460ff16611394576040517f08c379a000000000000000000000000000000000000000000000000000000000815260040161138b906124a3565b60405180910390fd5b60006003600089815260200190815260200160002090508060010181600201826003015483600401548460050185600601548580546113d2906129a4565b80601f01602080910402602001604051908101604052809291908181526020018280546113fe906129a4565b801561144b5780601f106114205761010080835404028352916020019161144b565b820191906000526020600020905b81548152906001019060200180831161142e57829003601f168201915b5050505050955084805461145e906129a4565b80601f016020809104026020016040519081016040528092919081815260200182805461148a906129a4565b80156114d75780601f106114ac576101008083540402835291602001916114d7565b820191906000526020600020905b8154815290600101906020018083116114ba57829003601f168201915b505050505094508180546114ea906129a4565b80601f0160208091040260200160405190810160405280929190818152602001828054611516906129a4565b80156115635780601f1061153857610100808354040283529160200191611563565b820191906000526020600020905b81548152906001019060200180831161154657829003601f168201915b505050505091509650965096509650965096505091939550919395565b60606000806000606060008611801561159b57506002548611155b6115da576040517f08c379a00000000000000000000000000000000000000000000000000000000081526004016115d190612563565b60405180910390fd5b60006004600088815260200190815260200160002090508060010181600201548260030160009054906101000a900473ffffffffffffffffffffffffffffffffffffffff168360030160149054906101000a900460ff1684600401848054611641906129a4565b80601f016020809104026020016040519081016040528092919081815260200182805461166d906129a4565b80156116ba5780601f1061168f576101008083540402835291602001916116ba565b820191906000526020600020905b81548152906001019060200180831161169d57829003601f168201915b505050505094508080546116cd906129a4565b80601f01602080910402602001604051908101604052809291908181526020018280546116f9906129a4565b80156117465780601f1061171b57610100808354040283529160200191611746565b820191906000526020600020905b81548152906001019060200180831161172957829003601f168201915b50505050509050955095509550955095505091939590929450565b60015481565b600080600190505b60015481116117fd5782604051602001611789919061233e565b60405160208183030381529060405280519060200120600360008381526020019081526020016000206001016040516020016117c59190612355565b6040516020818303038152906040528051906020012014156117ea5780915050611803565b80806117f5906129d6565b91505061176f565b50600090505b919050565b60008054906101000a900473ffffffffffffffffffffffffffffffffffffffff1673ffffffffffffffffffffffffffffffffffffffff163373ffffffffffffffffffffffffffffffffffffffff1614611896576040517f08c379a000000000000000000000000000000000000000000000000000000000815260040161188d90612583565b60405180910390fd5b6003600082815260200190815260200160002060070160009054906101000a900460ff166118f9576040517f08c379a00000000000000000000000000000000000000000000000000000000081526004016118f0906124a3565b60405180910390fd5b600360008281526020019081526020016000206000808201600090556001820160006119259190611b74565b6002820160006119359190611b74565b600382016000905560048201600090556005820160006119559190611b74565b60068201600090556007820160006101000a81549060ff021916905550507fc341cf326465fe622f86c468249e8c0cb03ed23ba376a6a34863a1374ac7d769816040516119a291906125a3565b60405180910390a150565b60008054906101000a900473ffffffffffffffffffffffffffffffffffffffff1673ffffffffffffffffffffffffffffffffffffffff163373ffffffffffffffffffffffffffffffffffffffff1614611a3b576040517f08c379a0000000000000000000000000000000000000000000000000000000008152600401611a3290612583565b60405180910390fd5b600073ffffffffffffffffffffffffffffffffffffffff168173ffffffffffffffffffffffffffffffffffffffff161415611aab576040517f08c379a0000000000000000000000000000000000000000000000000000000008152600401611aa2906124c3565b60405180910390fd5b806000806101000a81548173ffffffffffffffffffffffffffffffffffffffff021916908373ffffffffffffffffffffffffffffffffffffffff16021790555050565b828054611afa906129a4565b90600052602060002090601f016020900481019282611b1c5760008555611b63565b82601f10611b3557805160ff1916838001178555611b63565b82800160010185558215611b63579182015b82811115611b62578251825591602001919060010190611b47565b5b509050611b709190611bb4565b5090565b508054611b80906129a4565b6000825580601f10611b925750611bb1565b601f016020900490600052602060002090810190611bb09190611bb4565b5b50565b5b80821115611bcd576000816000905550600101611bb5565b5090565b6000611be4611bdf8461287a565b612849565b905082815260208101848484011115611bfc57600080fd5b611c07848285612962565b509392505050565b600081359050611c1e81612abd565b92915050565b600082601f830112611c3557600080fd5b8135611c45848260208601611bd1565b91505092915050565b600081359050611c5d81612ad4565b92915050565b600060208284031215611c7557600080fd5b6000611c8384828501611c0f565b91505092915050565b60008060408385031215611c9f57600080fd5b6000611cad85828601611c0f565b925050602083013567ffffffffffffffff811115611cca57600080fd5b611cd685828601611c24565b9150509250929050565b600060208284031215611cf257600080fd5b600082013567ffffffffffffffff811115611d0c57600080fd5b611d1884828501611c24565b91505092915050565b600080600080600060a08688031215611d3957600080fd5b600086013567ffffffffffffffff811115611d5357600080fd5b611d5f88828901611c24565b955050602086013567ffffffffffffffff811115611d7c57600080fd5b611d8888828901611c24565b9450506040611d9988828901611c4e565b9350506060611daa88828901611c4e565b925050608086013567ffffffffffffffff811115611dc757600080fd5b611dd388828901611c24565b9150509295509295909350565b60008060408385031215611df357600080fd5b600083013567ffffffffffffffff811115611e0d57600080fd5b611e1985828601611c24565b9250506020611e2a85828601611c4e565b9150509250929050565b600060208284031215611e4657600080fd5b6000611e5484828501611c4e565b91505092915050565b60008060408385031215611e7057600080fd5b6000611e7e85828601611c4e565b925050602083013567ffffffffffffffff811115611e9b57600080fd5b611ea785828601611c24565b9150509250929050565b60008060008060008060c08789031215611eca57600080fd5b6000611ed889828a01611c4e565b965050602087013567ffffffffffffffff811115611ef557600080fd5b611f0189828a01611c24565b955050604087013567ffffffffffffffff811115611f1e57600080fd5b611f2a89828a01611c24565b9450506060611f3b89828a01611c4e565b9350506080611f4c89828a01611c4e565b92505060a087013567ffffffffffffffff811115611f6957600080fd5b611f7589828a01611c24565b9150509295509295509295565b611f8b8161291a565b82525050565b611f9a8161292c565b82525050565b6000611fab826128bf565b611fb581856128ca565b9350611fc5818560208601612971565b611fce81612aac565b840191505092915050565b6000611fe4826128bf565b611fee81856128db565b9350611ffe818560208601612971565b80840191505092915050565b60008154612017816129a4565b61202181866128db565b9450600182166000811461203c576001811461204d57612080565b60ff19831686528186019350612080565b612056856128aa565b60005b8381101561207857815481890152600182019150602081019050612059565b838801955050505b50505092915050565b60006120966005836128db565b91507f6f776e65720000000000000000000000000000000000000000000000000000006000830152600582019050919050565b60006120d66016836128ca565b91507f50726f6475637420646f6573206e6f74206578697374000000000000000000006000830152602082019050919050565b6000612116600f836128ca565b91507f496e76616c6964206164647265737300000000000000000000000000000000006000830152602082019050919050565b60006121566017836128ca565b91507f4f7264657220616c72656164792066756c66696c6c65640000000000000000006000830152602082019050919050565b6000612196601b836128ca565b91507f4f6e6c79206f776e65722063616e206164642070726f647563747300000000006000830152602082019050919050565b60006121d6601d836128ca565b91507f496e73756666696369656e742070726f64756374207175616e746974790000006000830152602082019050919050565b6000612216601d836128ca565b91507f4f6e6c79206f776e65722063616e2072656769737465722075736572730000006000830152602082019050919050565b60006122566007836128ca565b91507f70656e64696e67000000000000000000000000000000000000000000000000006000830152602082019050919050565b60006122966010836128ca565b91507f496e76616c6964206f72646572204944000000000000000000000000000000006000830152602082019050919050565b60006122d66022836128ca565b91507f4f6e6c79206f776e65722063616e20706572666f726d2074686973206163746960008301527f6f6e0000000000000000000000000000000000000000000000000000000000006020830152604082019050919050565b61233881612958565b82525050565b600061234a8284611fd9565b915081905092915050565b6000612361828461200a565b915081905092915050565b600061237782612089565b9150819050919050565b60006020820190506123966000830184611f82565b92915050565b60006040820190506123b16000830185611f82565b81810360208301526123c38184611fa0565b90509392505050565b600060c08201905081810360008301526123e68189611fa0565b905081810360208301526123fa8188611fa0565b9050612409604083018761232f565b612416606083018661232f565b81810360808301526124288185611fa0565b905061243760a083018461232f565b979650505050505050565b600060a082019050818103600083015261245c8188611fa0565b905061246b602083018761232f565b6124786040830186611f82565b6124856060830185611f91565b81810360808301526124978184611fa0565b90509695505050505050565b600060208201905081810360008301526124bc816120c9565b9050919050565b600060208201905081810360008301526124dc81612109565b9050919050565b600060208201905081810360008301526124fc81612149565b9050919050565b6000602082019050818103600083015261251c81612189565b9050919050565b6000602082019050818103600083015261253c816121c9565b9050919050565b6000602082019050818103600083015261255c81612209565b9050919050565b6000602082019050818103600083015261257c81612289565b9050919050565b6000602082019050818103600083015261259c816122c9565b9050919050565b60006020820190506125b8600083018461232f565b92915050565b60006040820190506125d3600083018561232f565b81810360208301526125e58184611fa0565b90509392505050565b600060c082019050612603600083018961232f565b81810360208301526126158188611fa0565b905081810360408301526126298187611fa0565b9050612638606083018661232f565b612645608083018561232f565b81810360a08301526126578184611fa0565b9050979650505050505050565b600060e082019050612679600083018a61232f565b818103602083015261268b8189611fa0565b9050818103604083015261269f8188611fa0565b90506126ae606083018761232f565b6126bb608083018661232f565b81810360a08301526126cd8185611fa0565b90506126dc60c083018461232f565b98975050505050505050565b6000610100820190506126fe600083018b61232f565b8181036020830152612710818a611fa0565b905081810360408301526127248189611fa0565b9050612733606083018861232f565b612740608083018761232f565b81810360a08301526127528186611fa0565b905061276160c083018561232f565b61276e60e0830184611f91565b9998505050505050505050565b600060c082019050612790600083018961232f565b81810360208301526127a28188611fa0565b90506127b1604083018761232f565b6127be6060830186611f82565b6127cb6080830185611f91565b81810360a08301526127dd8184611fa0565b9050979650505050505050565b600060a0820190506127ff600083018761232f565b81810360208301526128118186611fa0565b9050612820604083018561232f565b61282d6060830184611f82565b818103608083015261283e81612249565b905095945050505050565b6000604051905081810181811067ffffffffffffffff821117156128705761286f612a7d565b5b8060405250919050565b600067ffffffffffffffff82111561289557612894612a7d565b5b601f19601f8301169050602081019050919050565b60008190508160005260206000209050919050565b600081519050919050565b600082825260208201905092915050565b600081905092915050565b60006128f182612958565b91506128fc83612958565b92508282101561290f5761290e612a1f565b5b828203905092915050565b600061292582612938565b9050919050565b60008115159050919050565b600073ffffffffffffffffffffffffffffffffffffffff82169050919050565b6000819050919050565b82818337600083830152505050565b60005b8381101561298f578082015181840152602081019050612974565b8381111561299e576000848401525b50505050565b600060028204905060018216806129bc57607f821691505b602082108114156129d0576129cf612a4e565b5b50919050565b60006129e182612958565b91507fffffffffffffffffffffffffffffffffffffffffffffffffffffffffffffffff821415612a1457612a13612a1f565b5b600182019050919050565b7f4e487b7100000000000000000000000000000000000000000000000000000000600052601160045260246000fd5b7f4e487b7100000000000000000000000000000000000000000000000000000000600052602260045260246000fd5b7f4e487b7100000000000000000000000000000000000000000000000000000000600052604160045260246000fd5b6000601f19601f8301169050919050565b612ac68161291a565b8114612ad157600080fd5b50565b612add81612958565b8114612ae857600080fd5b5056fea2646970667358221220b8fe0b029150140a3a8f96f86e59c22ea62317adfed8d25c9dd8ee93d392a6da64736f6c63430008000033",
  "linkReferences": {},
  "deployedLinkReferences": {}
}