{
  "_format": "hh-sol-artifact-1",
  "contractName": "SupplyManagement",
  "sourceName": "contracts/SupplyManagement.sol",
  "abi": [
    {
      "inputs": [],
      "stateMutability": "nonpayable",
      "type": "constructor"
    },
    {
      "anonymous": false,
      "inputs": [
        {
          "indexed": false,
          "internalType": "uint256",
          "name": "orderId",
          "type": "uint256"
        }
      ],
      "name": "OrderDeleted",
      "type": "event"
    },
    {
      "anonymous": false,
      "inputs": [
        {
          "indexed": false,
          "internalType": "uint256",
          "name": "orderId",
          "type": "uint256"
        },
        {
          "indexed": false,
          "internalType": "string",
          "name": "status",
          "type": "string"
        }
      ],
      "name": "OrderFulfilled",
      "type": "event"
    },
    {
      "anonymous": false,
      "inputs": [
        {
          "indexed": false,
          "internalType": "uint256",
          "name": "orderId",
          "type": "uint256"
        },
        {
          "indexed": false,
          "internalType": "string",
          "name": "productName",
          "type": "string"
        },
        {
          "indexed": false,
          "internalType": "uint256",
          "name": "quantity",
          "type": "uint256"
        },
        {
          "indexed": false,
          "internalType": "address",
          "name": "buyer",
          "type": "address"
        },
        {
          "indexed": false,
          "internalType": "string",
          "name": "status",
          "type": "string"
        }
      ],
      "name": "OrderPlaced",
      "type": "event"
    },
    {
      "anonymous": false,
      "inputs": [
        {
          "indexed": false,
          "internalType": "uint256",
          "name": "id",
          "type": "uint256"
        },
        {
          "indexed": false,
          "internalType": "string",
          "name": "name",
          "type": "string"
        },
        {
          "indexed": false,
          "internalType": "string",
          "name": "description",
          "type": "string"
        },
        {
          "indexed": false,
          "internalType": "uint256",
          "name": "price",
          "type": "uint256"
        },
        {
          "indexed": false,
          "internalType": "uint256",
          "name": "quantity",
          "type": "uint256"
        },
        {
          "indexed": false,
          "internalType": "string",
          "name": "category",
          "type": "string"
        },
        {
          "indexed": false,
          "internalType": "uint256",
          "name": "createdAt",
          "type": "uint256"
        }
      ],
      "name": "ProductAdded",
      "type": "event"
    },
    {
      "anonymous": false,
      "inputs": [
        {
          "indexed": false,
          "internalType": "uint256",
          "name": "id",
          "type": "uint256"
        }
      ],
      "name": "ProductDeleted",
      "type": "event"
    },
    {
      "anonymous": false,
      "inputs": [
        {
          "indexed": false,
          "internalType": "uint256",
          "name": "id",
          "type": "uint256"
        },
        {
          "indexed": false,
          "internalType": "string",
          "name": "name",
          "type": "string"
        },
        {
          "indexed": false,
          "internalType": "string",
          "name": "description",
          "type": "string"
        },
        {
          "indexed": false,
          "internalType": "uint256",
          "name": "price",
          "type": "uint256"
        },
        {
          "indexed": false,
          "internalType": "uint256",
          "name": "quantity",
          "type": "uint256"
        },
        {
          "indexed": false,
          "internalType": "string",
          "name": "category",
          "type": "string"
        }
      ],
      "name": "ProductUpdated",
      "type": "event"
    },
    {
      "anonymous": false,
      "inputs": [
        {
          "indexed": false,
          "internalType": "address",
          "name": "userAddress",
          "type": "address"
        },
        {
          "indexed": false,
          "internalType": "string",
          "name": "role",
          "type": "string"
        }
      ],
      "name": "UserRegistered",
      "type": "event"
    },
    {
      "inputs": [
        {
          "internalType": "string",
          "name": "_name",
          "type": "string"
        },
        {
          "internalType": "string",
          "name": "_description",
          "type": "string"
        },
        {
          "internalType": "uint256",
          "name": "_price",
          "type": "uint256"
        },
        {
          "internalType": "uint256",
          "name": "_quantity",
          "type": "uint256"
        },
        {
          "internalType": "string",
          "name": "_category",
          "type": "string"
        }
      ],
      "name": "addProduct",
      "outputs": [],
      "stateMutability": "nonpayable",
      "type": "function"
    },
    {
      "inputs": [
        {
          "internalType": "uint256",
          "name": "_orderId",
          "type": "uint256"
        }
      ],
      "name": "deleteOrder",
      "outputs": [],
      "stateMutability": "nonpayable",
      "type": "function"
    },
    {
      "inputs": [
        {
          "internalType": "uint256",
          "name": "_productId",
          "type": "uint256"
        }
      ],
      "name": "deleteProduct",
      "outputs": [],
      "stateMutability": "nonpayable",
      "type": "function"
    },
    {
      "inputs": [
        {
          "internalType": "uint256",
          "name": "_orderId",
          "type": "uint256"
        },
        {
          "internalType": "string",
          "name": "_status",
          "type": "string"
        }
      ],
      "name": "fulfillOrder",
      "outputs": [],
      "stateMutability": "nonpayable",
      "type": "function"
    },
    {
      "inputs": [
        {
          "internalType": "uint256",
          "name": "_orderId",
          "type": "uint256"
        }
      ],
      "name": "getOrder",
      "outputs": [
        {
          "internalType": "string",
          "name": "",
          "type": "string"
        },
        {
          "internalType": "uint256",
          "name": "",
          "type": "uint256"
        },
        {
          "internalType": "address",
          "name": "",
          "type": "address"
        },
        {
          "internalType": "bool",
          "name": "",
          "type": "bool"
        },
        {
          "internalType": "string",
          "name": "",
          "type": "string"
        }
      ],
      "stateMutability": "view",
      "type": "function"
    },
    {
      "inputs": [
        {
          "internalType": "uint256",
          "name": "_productId",
          "type": "uint256"
        }
      ],
      "name": "getProduct",
      "outputs": [
        {
          "internalType": "string",
          "name": "",
          "type": "string"
        },
        {
          "internalType": "string",
          "name": "",
          "type": "string"
        },
        {
          "internalType": "uint256",
          "name": "",
          "type": "uint256"
        },
        {
          "internalType": "uint256",
          "name": "",
          "type": "uint256"
        },
        {
          "internalType": "string",
          "name": "",
          "type": "string"
        },
        {
          "internalType": "uint256",
          "name": "",
          "type": "uint256"
        }
      ],
      "stateMutability": "view",
      "type": "function"
    },
    {
      "inputs": [
        {
          "internalType": "string",
          "name": "_name",
          "type": "string"
        }
      ],
      "name": "getProductIdByName",
      "outputs": [
        {
          "internalType": "uint256",
          "name": "",
          "type": "uint256"
        }
      ],
      "stateMutability": "view",
      "type": "function"
    },
    {
      "inputs": [],
      "name": "orderCount",
      "outputs": [
        {
          "internalType": "uint256",
          "name": "",
          "type": "uint256"
        }
      ],
      "stateMutability": "view",
      "type": "function"
    },
    {
      "inputs": [
        {
          "internalType": "uint256",
          "name": "",
          "type": "uint256"
        }
      ],
      "name": "orders",
      "outputs": [
        {
          "internalType": "uint256",
          "name": "id",
          "type": "uint256"
        },
        {
          "internalType": "string",
          "name": "productName",
          "type": "string"
        },
        {
          "internalType": "uint256",
          "name": "quantity",
          "type": "uint256"
        },
        {
          "internalType": "address",
          "name": "buyer",
          "type": "address"
        },
        {
          "internalType": "bool",
          "name": "fulfilled",
          "type": "bool"
        },
        {
          "internalType": "string",
          "name": "status",
          "type": "string"
        }
      ],
      "stateMutability": "view",
      "type": "function"
    },
    {
      "inputs": [],
      "name": "owner",
      "outputs": [
        {
          "internalType": "address",
          "name": "",
          "type": "address"
        }
      ],
      "stateMutability": "view",
      "type": "function"
    },
    {
      "inputs": [
        {
          "internalType": "string",
          "name": "_productName",
          "type": "string"
        },
        {
          "internalType": "uint256",
          "name": "_quantity",
          "type": "uint256"
        }
      ],
      "name": "placeOrder",
      "outputs": [],
      "stateMutability": "nonpayable",
      "type": "function"
    },
    {
      "inputs": [],
      "name": "productCount",
      "outputs": [
        {
          "internalType": "uint256",
          "name": "",
          "type": "uint256"
        }
      ],
      "stateMutability": "view",
      "type": "function"
    },
    {
      "inputs": [
        {
          "internalType": "uint256",
          "name": "",
          "type": "uint256"
        }
      ],
      "name": "products",
      "outputs": [
        {
          "internalType": "uint256",
          "name": "id",
          "type": "uint256"
        },
        {
          "internalType": "string",
          "name": "name",
          "type": "string"
        },
        {
          "internalType": "string",
          "name": "description",
          "type": "string"
        },
        {
          "internalType": "uint256",
          "name": "price",
          "type": "uint256"
        },
        {
          "internalType": "uint256",
          "name": "quantity",
          "type": "uint256"
        },
        {
          "internalType": "string",
          "name": "category",
          "type": "string"
        },
        {
          "internalType": "uint256",
          "name": "createdAt",
          "type": "uint256"
        },
        {
          "internalType": "bool",
          "name": "exists",
          "type": "bool"
        }
      ],
      "stateMutability": "view",
      "type": "function"
    },
    {
      "inputs": [
        {
          "internalType": "address",
          "name": "_userAddress",
          "type": "address"
        },
        {
          "internalType": "string",
          "name": "_role",
          "type": "string"
        }
      ],
      "name": "registerUser",
      "outputs": [],
      "stateMutability": "nonpayable",
      "type": "function"
    },
    {
      "inputs": [
        {
          "internalType": "address",
          "name": "_newOwner",
          "type": "address"
        }
      ],
      "name": "transferOwnership",
      "outputs": [],
      "stateMutability": "nonpayable",
      "type": "function"
    },
    {
      "inputs": [
        {
          "internalType": "uint256",
          "name": "_productId",
          "type": "uint256"
        },
        {
          "internalType": "string",
          "name": "_name",
          "type": "string"
        },
        {
          "internalType": "string",
          "name": "_description",
          "type": "string"
        },
        {
          "internalType": "uint256",
          "name": "_price",
          "type": "uint256"
        },
        {
          "internalType": "uint256",
          "name": "_quantity",
          "type": "uint256"
        },
        {
          "internalType": "string",
          "name": "_category",
          "type": "string"
        }
      ],
      "name": "updateProduct",
      "outputs": [],
      "stateMutability": "nonpayable",
      "type": "function"
    },
    {
      "inputs": [
        {
          "internalType": "address",
          "name": "",
          "type": "address"
        }
      ],
      "name": "users",
      "outputs": [
        {
          "internalType": "address",
          "name": "userAddress",
          "type": "address"
        },
        {
          "internalType": "string",
          "name": "role",
          "type": "string"
        }
      ],
      "stateMutability": "view",
      "type": "function"
    }
  ],
  "bytecode": "0x608060405234801561001057600080fd5b50336000806101000a81548173ffffffffffffffffffffffffffffffffffffffff021916908373ffffffffffffffffffffffffffffffffffffffff16021790555061299f806100606000396000f3fe608060405234801561001057600080fd5b506004361061010b5760003560e01c8063a1b6e836116100a2578063d09ef24111610071578063d09ef241146102c6578063e0f6ef87146102fa578063e1b6579814610318578063ed90c7b714610348578063f2fde38b146103645761010b565b8063a1b6e8361461020f578063a85c38ef1461022b578063a87430ba14610260578063b9db15b4146102915761010b565b8063520a74bb116100de578063520a74bb146101825780636daf0fbb1461019e5780637acc0b20146101ba5780638da5cb5b146101f15761010b565b80630ea126f91461011057806311a003271461012c5780632453ffa8146101485780634da47d3714610166575b600080fd5b61012a60048036038101906101259190611bbf565b610380565b005b61014660048036038101906101419190611d67565b61051c565b005b6101506106b6565b60405161015d9190612421565b60405180910390f35b610180600480360381019061017b9190611de4565b6106bc565b005b61019c60048036038101906101979190611d90565b61086b565b005b6101b860048036038101906101b39190611c54565b610a27565b005b6101d460048036038101906101cf9190611d67565b610b87565b6040516101e8989796959493929190612566565b60405180910390f35b6101f9610d74565b604051610206919061221f565b60405180910390f35b61022960048036038101906102249190611d13565b610d98565b005b61024560048036038101906102409190611d67565b611015565b604051610257969594939291906125f9565b60405180910390f35b61027a60048036038101906102759190611b96565b61118e565b60405161028892919061223a565b60405180910390f35b6102ab60048036038101906102a69190611d67565b61125a565b6040516102bd9695949392919061226a565b60405180910390f35b6102e060048036038101906102db9190611d67565b6114b3565b6040516102f19594939291906122e0565b60405180910390f35b610302611694565b60405161030f9190612421565b60405180910390f35b610332600480360381019061032d9190611c13565b61169a565b60405161033f9190612421565b60405180910390f35b610362600480360381019061035d9190611d67565b61173b565b005b61037e60048036038101906103799190611b96565b6118e0565b005b60008054906101000a900473ffffffffffffffffffffffffffffffffffffffff1673ffffffffffffffffffffffffffffffffffffffff163373ffffffffffffffffffffffffffffffffffffffff161461040e576040517f08c379a0000000000000000000000000000000000000000000000000000000008152600401610405906123c1565b60405180910390fd5b60405180604001604052808373ffffffffffffffffffffffffffffffffffffffff16815260200182815250600560008473ffffffffffffffffffffffffffffffffffffffff1673ffffffffffffffffffffffffffffffffffffffff16815260200190815260200160002060008201518160000160006101000a81548173ffffffffffffffffffffffffffffffffffffffff021916908373ffffffffffffffffffffffffffffffffffffffff16021790555060208201518160010190805190602001906104db929190611a21565b509050507f48cac28ad4dc618e15f4c2dd5e97751182f166de97b25618318b2112aa951a2f828260405161051092919061223a565b60405180910390a15050565b60008054906101000a900473ffffffffffffffffffffffffffffffffffffffff1673ffffffffffffffffffffffffffffffffffffffff163373ffffffffffffffffffffffffffffffffffffffff16146105aa576040517f08c379a00000000000000000000000000000000000000000000000000000000081526004016105a190612401565b60405180910390fd5b6000811180156105bc57506002548111155b6105fb576040517f08c379a00000000000000000000000000000000000000000000000000000000081526004016105f2906123e1565b60405180910390fd5b600460008281526020019081526020016000206000808201600090556001820160006106279190611aa7565b60028201600090556003820160006101000a81549073ffffffffffffffffffffffffffffffffffffffff02191690556003820160146101000a81549060ff021916905560048201600061067a9190611aa7565b50507f91635156bba825be2f9a200b140420e4bee0d251f7d43bf956e63f74960030e0816040516106ab9190612421565b60405180910390a150565b60025481565b60008054906101000a900473ffffffffffffffffffffffffffffffffffffffff1673ffffffffffffffffffffffffffffffffffffffff163373ffffffffffffffffffffffffffffffffffffffff161461074a576040517f08c379a000000000000000000000000000000000000000000000000000000000815260040161074190612401565b60405180910390fd5b6003600087815260200190815260200160002060070160009054906101000a900460ff166107ad576040517f08c379a00000000000000000000000000000000000000000000000000000000081526004016107a490612341565b60405180910390fd5b6000600360008881526020019081526020016000209050858160010190805190602001906107dc929190611a21565b50848160020190805190602001906107f5929190611a21565b5083816003018190555082816004018190555081816005019080519060200190610820929190611a21565b507f1a5ad55a3af679b754795041d526abc4762353fa712b4dcd5af397232e89ea2f87878787878760405161085a9695949392919061246c565b60405180910390a150505050505050565b60008054906101000a900473ffffffffffffffffffffffffffffffffffffffff1673ffffffffffffffffffffffffffffffffffffffff163373ffffffffffffffffffffffffffffffffffffffff16146108f9576040517f08c379a00000000000000000000000000000000000000000000000000000000081526004016108f090612401565b60405180910390fd5b60008211801561090b57506002548211155b61094a576040517f08c379a0000000000000000000000000000000000000000000000000000000008152600401610941906123e1565b60405180910390fd5b60006004600084815260200190815260200160002090508060030160149054906101000a900460ff16156109b3576040517f08c379a00000000000000000000000000000000000000000000000000000000081526004016109aa90612381565b60405180910390fd5b60018160030160146101000a81548160ff021916908315150217905550818160040190805190602001906109e8929190611a21565b507f93161d8f4015340d1c4c0ef40f679db2250069c0ec3ee411d3801aa0a2bb60148383604051610a1a92919061243c565b60405180910390a1505050565b60016000815480929190610a3a90612854565b91905055506000429050604051806101000160405280600154815260200187815260200186815260200185815260200184815260200183815260200182815260200160011515815250600360006001548152602001908152602001600020600082015181600001556020820151816001019080519060200190610abe929190611a21565b506040820151816002019080519060200190610adb929190611a21565b50606082015181600301556080820151816004015560a0820151816005019080519060200190610b0c929190611a21565b5060c0820151816006015560e08201518160070160006101000a81548160ff0219169083151502179055509050507f35daa2855ab12d91eeb89a0d185130432cb67332e679f336e2b73b792dfee572600154878787878787604051610b7797969594939291906124e2565b60405180910390a1505050505050565b6003602052806000526040600020600091509050806000015490806001018054610bb090612822565b80601f0160208091040260200160405190810160405280929190818152602001828054610bdc90612822565b8015610c295780601f10610bfe57610100808354040283529160200191610c29565b820191906000526020600020905b815481529060010190602001808311610c0c57829003601f168201915b505050505090806002018054610c3e90612822565b80601f0160208091040260200160405190810160405280929190818152602001828054610c6a90612822565b8015610cb75780601f10610c8c57610100808354040283529160200191610cb7565b820191906000526020600020905b815481529060010190602001808311610c9a57829003601f168201915b505050505090806003015490806004015490806005018054610cd890612822565b80601f0160208091040260200160405190810160405280929190818152602001828054610d0490612822565b8015610d515780601f10610d2657610100808354040283529160200191610d51565b820191906000526020600020905b815481529060010190602001808311610d3457829003601f168201915b5050505050908060060154908060070160009054906101000a900460ff16905088565b60008054906101000a900473ffffffffffffffffffffffffffffffffffffffff1681565b6000610da38361169a565b90506000811415610de9576040517f08c379a0000000000000000000000000000000000000000000000000000000008152600401610de090612341565b60405180910390fd5b8160036000838152602001908152602001600020600401541015610e42576040517f08c379a0000000000000000000000000000000000000000000000000000000008152600401610e39906123a1565b60405180910390fd5b60026000815480929190610e5590612854565b91905055506040518060c0016040528060025481526020018481526020018381526020013373ffffffffffffffffffffffffffffffffffffffff1681526020016000151581526020016040518060400160405280600781526020017f70656e64696e6700000000000000000000000000000000000000000000000000815250815250600460006002548152602001908152602001600020600082015181600001556020820151816001019080519060200190610f12929190611a21565b506040820151816002015560608201518160030160006101000a81548173ffffffffffffffffffffffffffffffffffffffff021916908373ffffffffffffffffffffffffffffffffffffffff16021790555060808201518160030160146101000a81548160ff02191690831515021790555060a0820151816004019080519060200190610fa0929190611a21565b5090505081600360008381526020019081526020016000206004016000828254610fca9190612764565b925050819055507f6491695afacb7a186fd436ad32316506f6f009aa22b0c9ffce8eee149f9b39526002548484336040516110089493929190612668565b60405180910390a1505050565b600460205280600052604060002060009150905080600001549080600101805461103e90612822565b80601f016020809104026020016040519081016040528092919081815260200182805461106a90612822565b80156110b75780601f1061108c576101008083540402835291602001916110b7565b820191906000526020600020905b81548152906001019060200180831161109a57829003601f168201915b5050505050908060020154908060030160009054906101000a900473ffffffffffffffffffffffffffffffffffffffff16908060030160149054906101000a900460ff169080600401805461110b90612822565b80601f016020809104026020016040519081016040528092919081815260200182805461113790612822565b80156111845780601f1061115957610100808354040283529160200191611184565b820191906000526020600020905b81548152906001019060200180831161116757829003601f168201915b5050505050905086565b60056020528060005260406000206000915090508060000160009054906101000a900473ffffffffffffffffffffffffffffffffffffffff16908060010180546111d790612822565b80601f016020809104026020016040519081016040528092919081815260200182805461120390612822565b80156112505780601f1061122557610100808354040283529160200191611250565b820191906000526020600020905b81548152906001019060200180831161123357829003601f168201915b5050505050905082565b606080600080606060006003600088815260200190815260200160002060070160009054906101000a900460ff166112c7576040517f08c379a00000000000000000000000000000000000000000000000000000000081526004016112be90612341565b60405180910390fd5b600060036000898152602001908152602001600020905080600101816002018260030154836004015484600501856006015485805461130590612822565b80601f016020809104026020016040519081016040528092919081815260200182805461133190612822565b801561137e5780601f106113535761010080835404028352916020019161137e565b820191906000526020600020905b81548152906001019060200180831161136157829003601f168201915b5050505050955084805461139190612822565b80601f01602080910402602001604051908101604052809291908181526020018280546113bd90612822565b801561140a5780601f106113df5761010080835404028352916020019161140a565b820191906000526020600020905b8154815290600101906020018083116113ed57829003601f168201915b5050505050945081805461141d90612822565b80601f016020809104026020016040519081016040528092919081815260200182805461144990612822565b80156114965780601f1061146b57610100808354040283529160200191611496565b820191906000526020600020905b81548152906001019060200180831161147957829003601f168201915b505050505091509650965096509650965096505091939550919395565b6060600080600060606000861180156114ce57506002548611155b61150d576040517f08c379a0000000000000000000000000000000000000000000000000000000008152600401611504906123e1565b60405180910390fd5b60006004600088815260200190815260200160002090508060010181600201548260030160009054906101000a900473ffffffffffffffffffffffffffffffffffffffff168360030160149054906101000a900460ff168460040184805461157490612822565b80601f01602080910402602001604051908101604052809291908181526020018280546115a090612822565b80156115ed5780601f106115c2576101008083540402835291602001916115ed565b820191906000526020600020905b8154815290600101906020018083116115d057829003601f168201915b5050505050945080805461160090612822565b80601f016020809104026020016040519081016040528092919081815260200182805461162c90612822565b80156116795780601f1061164e57610100808354040283529160200191611679565b820191906000526020600020905b81548152906001019060200180831161165c57829003601f168201915b50505050509050955095509550955095505091939590929450565b60015481565b600080600190505b600154811161173057826040516020016116bc91906121f1565b60405160208183030381529060405280519060200120600360008381526020019081526020016000206001016040516020016116f89190612208565b60405160208183030381529060405280519060200120141561171d5780915050611736565b808061172890612854565b9150506116a2565b50600090505b919050565b60008054906101000a900473ffffffffffffffffffffffffffffffffffffffff1673ffffffffffffffffffffffffffffffffffffffff163373ffffffffffffffffffffffffffffffffffffffff16146117c9576040517f08c379a00000000000000000000000000000000000000000000000000000000081526004016117c090612401565b60405180910390fd5b6003600082815260200190815260200160002060070160009054906101000a900460ff1661182c576040517f08c379a000000000000000000000000000000000000000000000000000000000815260040161182390612341565b60405180910390fd5b600360008281526020019081526020016000206000808201600090556001820160006118589190611aa7565b6002820160006118689190611aa7565b600382016000905560048201600090556005820160006118889190611aa7565b60068201600090556007820160006101000a81549060ff021916905550507fc341cf326465fe622f86c468249e8c0cb03ed23ba376a6a34863a1374ac7d769816040516118d59190612421565b60405180910390a150565b60008054906101000a900473ffffffffffffffffffffffffffffffffffffffff1673ffffffffffffffffffffffffffffffffffffffff163373ffffffffffffffffffffffffffffffffffffffff161461196e576040517f08c379a000000000000000000000000000000000000000000000000000000000815260040161196590612401565b60405180910390fd5b600073ffffffffffffffffffffffffffffffffffffffff168173ffffffffffffffffffffffffffffffffffffffff1614156119de576040517f08c379a00000000000000000000000000000000000000000000000000000000081526004016119d590612361565b60405180910390fd5b806000806101000a81548173ffffffffffffffffffffffffffffffffffffffff021916908373ffffffffffffffffffffffffffffffffffffffff16021790555050565b828054611a2d90612822565b90600052602060002090601f016020900481019282611a4f5760008555611a96565b82601f10611a6857805160ff1916838001178555611a96565b82800160010185558215611a96579182015b82811115611a95578251825591602001919060010190611a7a565b5b509050611aa39190611ae7565b5090565b508054611ab390612822565b6000825580601f10611ac55750611ae4565b601f016020900490600052602060002090810190611ae39190611ae7565b5b50565b5b80821115611b00576000816000905550600101611ae8565b5090565b6000611b17611b12846126f8565b6126c7565b905082815260208101848484011115611b2f57600080fd5b611b3a8482856127e0565b509392505050565b600081359050611b518161293b565b92915050565b600082601f830112611b6857600080fd5b8135611b78848260208601611b04565b91505092915050565b600081359050611b9081612952565b92915050565b600060208284031215611ba857600080fd5b6000611bb684828501611b42565b91505092915050565b60008060408385031215611bd257600080fd5b6000611be085828601611b42565b925050602083013567ffffffffffffffff811115611bfd57600080fd5b611c0985828601611b57565b9150509250929050565b600060208284031215611c2557600080fd5b600082013567ffffffffffffffff811115611c3f57600080fd5b611c4b84828501611b57565b91505092915050565b600080600080600060a08688031215611c6c57600080fd5b600086013567ffffffffffffffff811115611c8657600080fd5b611c9288828901611b57565b955050602086013567ffffffffffffffff811115611caf57600080fd5b611cbb88828901611b57565b9450506040611ccc88828901611b81565b9350506060611cdd88828901611b81565b925050608086013567ffffffffffffffff811115611cfa57600080fd5b611d0688828901611b57565b9150509295509295909350565b60008060408385031215611d2657600080fd5b600083013567ffffffffffffffff811115611d4057600080fd5b611d4c85828601611b57565b9250506020611d5d85828601611b81565b9150509250929050565b600060208284031215611d7957600080fd5b6000611d8784828501611b81565b91505092915050565b60008060408385031215611da357600080fd5b6000611db185828601611b81565b925050602083013567ffffffffffffffff811115611dce57600080fd5b611dda85828601611b57565b9150509250929050565b60008060008060008060c08789031215611dfd57600080fd5b6000611e0b89828a01611b81565b965050602087013567ffffffffffffffff811115611e2857600080fd5b611e3489828a01611b57565b955050604087013567ffffffffffffffff811115611e5157600080fd5b611e5d89828a01611b57565b9450506060611e6e89828a01611b81565b9350506080611e7f89828a01611b81565b92505060a087013567ffffffffffffffff811115611e9c57600080fd5b611ea889828a01611b57565b9150509295509295509295565b611ebe81612798565b82525050565b611ecd816127aa565b82525050565b6000611ede8261273d565b611ee88185612748565b9350611ef88185602086016127ef565b611f018161292a565b840191505092915050565b6000611f178261273d565b611f218185612759565b9350611f318185602086016127ef565b80840191505092915050565b60008154611f4a81612822565b611f548186612759565b94506001821660008114611f6f5760018114611f8057611fb3565b60ff19831686528186019350611fb3565b611f8985612728565b60005b83811015611fab57815481890152600182019150602081019050611f8c565b838801955050505b50505092915050565b6000611fc9601683612748565b91507f50726f6475637420646f6573206e6f74206578697374000000000000000000006000830152602082019050919050565b6000612009600f83612748565b91507f496e76616c6964206164647265737300000000000000000000000000000000006000830152602082019050919050565b6000612049601783612748565b91507f4f7264657220616c72656164792066756c66696c6c65640000000000000000006000830152602082019050919050565b6000612089601d83612748565b91507f496e73756666696369656e742070726f64756374207175616e746974790000006000830152602082019050919050565b60006120c9601d83612748565b91507f4f6e6c79206f776e65722063616e2072656769737465722075736572730000006000830152602082019050919050565b6000612109600783612748565b91507f70656e64696e67000000000000000000000000000000000000000000000000006000830152602082019050919050565b6000612149601083612748565b91507f496e76616c6964206f72646572204944000000000000000000000000000000006000830152602082019050919050565b6000612189602283612748565b91507f4f6e6c79206f776e65722063616e20706572666f726d2074686973206163746960008301527f6f6e0000000000000000000000000000000000000000000000000000000000006020830152604082019050919050565b6121eb816127d6565b82525050565b60006121fd8284611f0c565b915081905092915050565b60006122148284611f3d565b915081905092915050565b60006020820190506122346000830184611eb5565b92915050565b600060408201905061224f6000830185611eb5565b81810360208301526122618184611ed3565b90509392505050565b600060c08201905081810360008301526122848189611ed3565b905081810360208301526122988188611ed3565b90506122a760408301876121e2565b6122b460608301866121e2565b81810360808301526122c68185611ed3565b90506122d560a08301846121e2565b979650505050505050565b600060a08201905081810360008301526122fa8188611ed3565b905061230960208301876121e2565b6123166040830186611eb5565b6123236060830185611ec4565b81810360808301526123358184611ed3565b90509695505050505050565b6000602082019050818103600083015261235a81611fbc565b9050919050565b6000602082019050818103600083015261237a81611ffc565b9050919050565b6000602082019050818103600083015261239a8161203c565b9050919050565b600060208201905081810360008301526123ba8161207c565b9050919050565b600060208201905081810360008301526123da816120bc565b9050919050565b600060208201905081810360008301526123fa8161213c565b9050919050565b6000602082019050818103600083015261241a8161217c565b9050919050565b600060208201905061243660008301846121e2565b92915050565b600060408201905061245160008301856121e2565b81810360208301526124638184611ed3565b90509392505050565b600060c08201905061248160008301896121e2565b81810360208301526124938188611ed3565b905081810360408301526124a78187611ed3565b90506124b660608301866121e2565b6124c360808301856121e2565b81810360a08301526124d58184611ed3565b9050979650505050505050565b600060e0820190506124f7600083018a6121e2565b81810360208301526125098189611ed3565b9050818103604083015261251d8188611ed3565b905061252c60608301876121e2565b61253960808301866121e2565b81810360a083015261254b8185611ed3565b905061255a60c08301846121e2565b98975050505050505050565b60006101008201905061257c600083018b6121e2565b818103602083015261258e818a611ed3565b905081810360408301526125a28189611ed3565b90506125b160608301886121e2565b6125be60808301876121e2565b81810360a08301526125d08186611ed3565b90506125df60c08301856121e2565b6125ec60e0830184611ec4565b9998505050505050505050565b600060c08201905061260e60008301896121e2565b81810360208301526126208188611ed3565b905061262f60408301876121e2565b61263c6060830186611eb5565b6126496080830185611ec4565b81810360a083015261265b8184611ed3565b9050979650505050505050565b600060a08201905061267d60008301876121e2565b818103602083015261268f8186611ed3565b905061269e60408301856121e2565b6126ab6060830184611eb5565b81810360808301526126bc816120fc565b905095945050505050565b6000604051905081810181811067ffffffffffffffff821117156126ee576126ed6128fb565b5b8060405250919050565b600067ffffffffffffffff821115612713576127126128fb565b5b601f19601f8301169050602081019050919050565b60008190508160005260206000209050919050565b600081519050919050565b600082825260208201905092915050565b600081905092915050565b600061276f826127d6565b915061277a836127d6565b92508282101561278d5761278c61289d565b5b828203905092915050565b60006127a3826127b6565b9050919050565b60008115159050919050565b600073ffffffffffffffffffffffffffffffffffffffff82169050919050565b6000819050919050565b82818337600083830152505050565b60005b8381101561280d5780820151818401526020810190506127f2565b8381111561281c576000848401525b50505050565b6000600282049050600182168061283a57607f821691505b6020821081141561284e5761284d6128cc565b5b50919050565b600061285f826127d6565b91507fffffffffffffffffffffffffffffffffffffffffffffffffffffffffffffffff8214156128925761289161289d565b5b600182019050919050565b7f4e487b7100000000000000000000000000000000000000000000000000000000600052601160045260246000fd5b7f4e487b7100000000000000000000000000000000000000000000000000000000600052602260045260246000fd5b7f4e487b7100000000000000000000000000000000000000000000000000000000600052604160045260246000fd5b6000601f19601f8301169050919050565b61294481612798565b811461294f57600080fd5b50565b61295b816127d6565b811461296657600080fd5b5056fea2646970667358221220fa86fbb15c6a513b764c6066db7642ad7a27f30f3f29c5cace1e8f4b58477e7064736f6c63430008000033",
  "linkReferences": {},
  "deployedLinkReferences": {}
}